{
    "contractName": "Ballot",
    "abi": [
        {
            "inputs": [],
            "stateMutability": "nonpayable",
            "type": "constructor"
        },
        {
            "inputs": [
                {
                    "internalType": "string",
                    "name": "_name",
                    "type": "string"
                },
                {
                    "internalType": "address",
                    "name": "_address",
                    "type": "address"
                }
            ],
            "name": "changeName",
            "outputs": [],
            "stateMutability": "nonpayable",
            "type": "function"
        },
        {
            "inputs": [
                {
                    "internalType": "address",
                    "name": "_address",
                    "type": "address"
                }
            ],
            "name": "giveRightToVerification2",
            "outputs": [],
            "stateMutability": "nonpayable",
            "type": "function"
        },
        {
            "inputs": [],
            "name": "logOut",
            "outputs": [],
            "stateMutability": "nonpayable",
            "type": "function"
        },
        {
            "inputs": [
                {
                    "internalType": "uint256",
                    "name": "",
                    "type": "uint256"
                }
            ],
            "name": "proposals",
            "outputs": [
                {
                    "internalType": "string",
                    "name": "name",
                    "type": "string"
                },
                {
                    "internalType": "uint256",
                    "name": "voteCount",
                    "type": "uint256"
                }
            ],
            "stateMutability": "view",
            "type": "function"
        },
        {
            "inputs": [
                {
                    "internalType": "address",
                    "name": "_address",
                    "type": "address"
                },
                {
                    "internalType": "uint256",
                    "name": "_token",
                    "type": "uint256"
                }
            ],
            "name": "verification1",
            "outputs": [
                {
                    "internalType": "bool",
                    "name": "voted_",
                    "type": "bool"
                }
            ],
            "stateMutability": "view",
            "type": "function"
        },
        {
            "inputs": [
                {
                    "internalType": "address",
                    "name": "_address",
                    "type": "address"
                },
                {
                    "internalType": "uint256",
                    "name": "_token",
                    "type": "uint256"
                }
            ],
            "name": "verification2",
            "outputs": [
                {
                    "internalType": "string",
                    "name": "name_",
                    "type": "string"
                },
                {
                    "internalType": "bool",
                    "name": "voted_",
                    "type": "bool"
                },
                {
                    "internalType": "string",
                    "name": "vote_",
                    "type": "string"
                }
            ],
            "stateMutability": "view",
            "type": "function"
        },
        {
            "inputs": [
                {
                    "internalType": "uint256",
                    "name": "_proposal",
                    "type": "uint256"
                }
            ],
            "name": "vote",
            "outputs": [],
            "stateMutability": "nonpayable",
            "type": "function"
        },
        {
            "inputs": [],
            "name": "winningProposal",
            "outputs": [
                {
                    "internalType": "uint256",
                    "name": "winningProposal_",
                    "type": "uint256"
                },
                {
                    "internalType": "string",
                    "name": "winnerName_",
                    "type": "string"
                }
            ],
            "stateMutability": "view",
            "type": "function"
        }
    ],
    "bytecode": "60806040523461009c575f80546001600160a01b031916331790556100526100256100a0565b61002f60406100d3565b60098152682537b2902134b232b760b91b602082015281525f60208201526100f8565b61008d61005d6100a0565b61006760406100d3565b600c81526b0446f6e616c64205472756d760a41b602082015281525f60208201526100f8565b60405161094790816102a58239f35b5f80fd5b60408051919082016001600160401b038111838210176100bf57604052565b634e487b7160e01b5f52604160045260245ffd5b6040519190601f01601f191682016001600160401b038111838210176100bf57604052565b90600254680100000000000000008110156100bf5760018101806002558110156102905760025f5282518051909360019290921b7f405787fa12a823e0f2b7631cc41b3ba8828b3321ca811111fa75cd3aa3bb5ace0191906001600160401b0381116100bf578254600181811c91168015610286575b602082101461027257601f811161022d575b506020601f82116001146101c55790806020939260019596975f926101ba575b50505f19600383901b1c191690841b1784555b0151910155565b015190505f806101a0565b601f19821690845f52805f20915f5b81811061021557509183916001969798602096958895106101fd575b505050811b0184556101b3565b01515f1960f88460031b161c191690555f80806101f0565b9192602060018192868c0151815501940192016101d4565b835f5260205f20601f830160051c81019160208410610268575b601f0160051c01905b81811061025d5750610180565b5f8155600101610250565b9091508190610247565b634e487b7160e01b5f52602260045260245ffd5b90607f169061016e565b634e487b7160e01b5f52603260045260245ffdfe60806040526004361015610011575f80fd5b5f3560e01c80630121b93f146105d4578063013cf08b1461057d5780634651700d1461036d5780634be422ae14610342578063570df09f146102e7578063609ff1bd1461023f578063828a3db8146101985763fe260d9114610071575f80fd5b346101945760403660031901126101945761008a610835565b6001600160a01b031660606100a0338314610890565b6100b06201e240602435146108d5565b815f526001602052600160ff600360405f200154161515036101585761012c82610119935f5260016020526100e760405f20610771565b92815f52600160205260ff600160405f2001541615159182610130575b50604051948594606086526060860190610811565b9160208501528382036040850152610811565b0390f35b90505f52600160205261015261014c600260405f2001546106e7565b50610771565b5f610104565b60405162461bcd60e51b815260206004820152601460248201527312185cc81b9bc81c9a59da1d0819dc985b9d195960621b6044820152606490fd5b5f80fd5b34610194576020366003190112610194576101b1610835565b5f546001600160a01b031633036101eb576001600160a01b03165f908152600160208190526040909120600301805460ff19169091179055005b60405162461bcd60e51b815260206004820152602660248201527f4f6e6c7920617574686f726974792063616e206769766520726967687420746f604482015265040eec2e8c6d60d31b6064820152608490fd5b34610194575f366003190112610194576002545f9081805b8281106102b35783806102a15760405161027260408261074f565b60048152631395531360e21b6020820152905b61012c6040519283928352604060208401526040830190610811565b6102ad61014c826106e7565b90610285565b8160016102bf836106e7565b500154116102d0575b600101610257565b92505060016102de836106e7565b500154826102c8565b34610194576040366003190112610194576001600160a01b03610308610835565b16610314813314610890565b6103246201e240602435146108d5565b5f526001602052602060ff600160405f200154166040519015158152f35b34610194575f36600319011261019457335f908152600160205260409020600301805460ff19169055005b346101945760403660031901126101945760043567ffffffffffffffff8111610194573660238201121561019457806004013567ffffffffffffffff811161052457604051916103c7601f8301601f19166020018461074f565b818352366024838301011161019457815f9260246020930183860137830101526024356001600160a01b038116908190036101945761041160018060a01b035f541633141561084b565b803303610538575f52600160205260405f20815167ffffffffffffffff81116105245761043e8254610717565b601f81116104df575b50602092601f821160011461048357928192935f92610478575b50505f19600383901b1c191660019190911b179055005b015190508380610461565b601f19821693835f52805f20915f5b8681106104c757508360019596106104af575b505050811b019055005b01515f1960f88460031b161c191690558380806104a5565b91926020600181928685015181550194019201610492565b825f5260205f20601f830160051c8101916020841061051a575b601f0160051c01905b81811061050f5750610447565b5f8155600101610502565b90915081906104f9565b634e487b7160e01b5f52604160045260245ffd5b60405162461bcd60e51b815260206004820152601b60248201527f486173206e6f20726967687420746f206368616e6765206e616d6500000000006044820152606490fd5b3461019457602036600319011261019457600435600254811015610194576105a76105ca916106e7565b5060016105b382610771565b910154604051928392604084526040840190610811565b9060208301520390f35b3461019457602036600319011261019457335f81815260016020526040812090546004359261060d916001600160a01b0316141561084b565b6106178154610717565b156106a257600181019182549260ff841661066d5760026106469383926001809760ff191617905501556106e7565b5001805490600182018092116106595755005b634e487b7160e01b5f52601160045260245ffd5b60405162461bcd60e51b815260206004820152600d60248201526c105b1c9958591e481d9bdd1959609a1b6044820152606490fd5b60405162461bcd60e51b815260206004820152601d60248201527f506c65617365206368616e676520796f7572206e616d652066697273740000006044820152606490fd5b6002548110156107035760025f5260205f209060011b01905f90565b634e487b7160e01b5f52603260045260245ffd5b90600182811c92168015610745575b602083101461073157565b634e487b7160e01b5f52602260045260245ffd5b91607f1691610726565b90601f8019910116810190811067ffffffffffffffff82111761052457604052565b9060405191825f82549261078484610717565b80845293600181169081156107ef57506001146107ab575b506107a99250038361074f565b565b90505f9291925260205f20905f915b8183106107d35750509060206107a9928201015f61079c565b60209193508060019154838589010152019101909184926107ba565b9050602092506107a994915060ff191682840152151560051b8201015f61079c565b805180835260209291819084018484015e5f828201840152601f01601f1916010190565b600435906001600160a01b038216820361019457565b1561085257565b60405162461bcd60e51b8152602060048201526016602482015275417574686f726974792063616e206e6f7420766f746560501b6044820152606490fd5b1561089757565b60405162461bcd60e51b8152602060048201526016602482015275486173206e6f20726967687420746f2076657269667960501b6044820152606490fd5b156108dc57565b60405162461bcd60e51b815260206004820152600d60248201526c24b73b30b634b2103a37b5b2b760991b6044820152606490fdfea2646970667358221220da7f23126e4604f308f5ec7c773f9454b8f6dbf9b02f940ee0f160f6bb7c2c5664736f6c634300081c0033",
    "sourcePath": "/Users/samuelmariwa/Sites/blockchain/zkproject/blockchain-electronic-voting-main/contracts/model_dc.sol",
    "compiler": {
        "name": "solc",
        "version": "0.8.28+commit.7893614a"
    },
    "functionHashes": {
        "changeName(string,address)": "4651700d",
        "giveRightToVerification2(address)": "828a3db8",
        "logOut()": "4be422ae",
        "proposals(uint256)": "013cf08b",
        "verification1(address,uint256)": "570df09f",
        "verification2(address,uint256)": "fe260d91",
        "vote(uint256)": "0121b93f",
        "winningProposal()": "609ff1bd"
    },
    "gasEstimates": {
        "creation": {
            "codeDepositCost": "475000",
            "executionCost": "infinite",
            "totalCost": "infinite"
        },
        "external": {
            "changeName(string,address)": "infinite",
            "giveRightToVerification2(address)": "26790",
            "logOut()": "24478",
            "proposals(uint256)": "infinite",
            "verification1(address,uint256)": "2604",
            "verification2(address,uint256)": "infinite",
            "vote(uint256)": "77443",
            "winningProposal()": "infinite"
        }
    }
}